:02000000C42911
:10000800B600003003178F000313360C7F39233EE8
:1000180003178D0003188F0A83168C170C14000021
:1000280000008312031336181E2803170C087F39A3
:100038000313080003170C0D0E0D031308008A069E
:10004800D3326E3269376710E430F4302E172E053C
:100058000D00D434ED32203A6F10F232E332693BAE
:1000680065103D1025328A0600276F10E430F43001
:100078002033EF3A6E3221050D008A0652232D19DE
:10008800B423202AE539F434EE333A050D00442927
:10009800A03B65377410EC3777050D008A06C4302D
:1000A800F4302029E531E534F632641D8A06802DC6
:1000B800B02E201DA01268050D00DB185D103A1047
:1000C80025348A06802DB22E201DA01268050D0049
:1000D800DB195D103A1025348A0600295810C337F9
:1000E8006E33E9337539613AE9376E10E634EE3428
:1000F800733465322E172E050D00542CA0216F374E
:10010800E634E73AF230F4346F3720336937E939A7
:10011800E83264172E178A060000FF037F0A0319C6
:10012800FF037F087F04031D912808002208230489
:100138000319B128A401043024020318AC28A5012E
:10014800453025020318AA28A50AA428A40A9F282E
:10015800A203220A0319A3039A2808007F087F0430
:100168000319CB28FF01FF0103307F02031CC228BB
:10017800031DC62807307F020318C628FF0A031983
:10018800FF0AB828FF037F0A0319FF03B2280800F3
:100198000C3099001811181283129817221CD828AD
:1001A80083160C160B178B17831698160800181150
:1001B8001812831298171816221CE62883168C1614
:1001C8000B178B1783120800B6000C1EE928360897
:1001D80099000800831203138C1EF0281A080800DF
:1001E800B6008A013608FB3E03188A0A82003034BA
:1001F80031343234333434343534363437343834B3
:100208003934413442344334443445344634AD01FE
:10021800AE01A901290826070420AA00AA08031983
:10022800C329253A031DBF29A90A2908260704203E
:10023800AA00AA080319C3295C3A031D2A29A90A96
:10024800290826070420AA00E820C1292A08623ABA
:10025800031D4629AB0108302B020318C129A71F2B
:1002680037293130E820A71B3B293030E8202B08FC
:10027800033A031D41292030E8200310A70DA80DDB
:10028800AB0A2F292A08643A031D93290430AB00CE
:10029800A81B852927082804031985292708B700DA
:1002A8002808B800AC011030B600B70DB80DAC0D79
:1002B800031862290A302C02031C64290A30AC0294
:1002C800B60B592931302B07840083132C08800082
:1002D8002708B7002808B800B9011030B600B70DD4
:1002E800B80DB90D03187C290A303902031C7F297F
:1002F8000A30B9020314A70DA80DB60B7329AB0376
:100308004C29AB0A05302B020318C12931302B07C1
:10031800840083130008F420E820AB0A86292A0801
:10032800683A031DB1293030E8207830E820A81B4E
:10033800A829A8080319A829280E0F39F420E820AD
:100348000F302805F420E820270E0F39F420E82084
:100358000F302705F420E820C1292A08663A031D32
:10036800B8292130E820C1292A08753A031DC12976
:100378002708E820C1292A08E820A90A0E29080028
:1003880083120313BF018316FA21BF0A1230BB0080
:100398003430BC00AB30BD003F08BE00A601A70149
:1003A800A8010B2164220C108E018F01101405186E
:1003B800DF290C1CDB2910100F08A1000E08A00073
:1003C8001430A6002008A7002108A8000B21051C4E
:1003D800EF291E22F4292B30A600A701A8010B2122
:1003E800E830A2000330A3009A20C92970308F009A
:1003F8000F1DFC299B0107309C00831285010130E9
:1004080083168500831286010430831686008312C2
:1004180022108316CC20831222108316DB203C3056
:10042800A600A701A8010B216430A200A3019A200D
:10043800C022942A0511BB01BC01BD01BE01A20165
:100448000430220203183E2AA301083023020318AD
:10045800362A0310A40D2410851824140516051235
:10046800A30A292A3B30220784008313240880002A
:10047800A20A242A0518452A5030A600A701A80177
:100488000B215E30A600A701A8010B217130A60040
:100498003B08A700A8010B217C30A6003C08A70058
:1004A800A8010B218730A6003D08A700A8010B2151
:1004B8009230A6003E08A700A8010B2105150800E8
:1004C8000614E730A500A201083022020318762A94
:1004D800A51F0612A51B0616861586110310A50D65
:1004E800A20A682AA201043022020318922A3B3089
:1004F8002207840083130008A400A3010830230204
:100508000318902AA41F0612A41B06168615861126
:100518000310A40DA30A822AA20A772A061008004B
:100528008501013083168500831205118515053074
:10053800A3006E30A4002330A500A20118302202C7
:100548000318B22AA51F8510A51B851405160512C8
:100558000310A30DA40DA50DA20AA22A0511851149
:1005680085010330831685008312051585119D309A
:10057800A600A701A8010B29061086140430A300C1
:100588006E30A4002330A500A201183022020318FF
:10059800D92AA51F0612A51B061686158611031053
:1005A800A30DA40DA50DA20AC92A06108610BC30F9
:0805B800A600A701A8010B2910
:00000001FF
