:0200000087294E
:10000800C400003003178F000313440C7F39233ECC
:1000180003178D0003188F0A83168C170C14000021
:1000280000008312031344181E2803170C087F3995
:100038000313080003170C0D0E0D031308008A069E
:1000480052232D19B423202AE539F434EE333A0526
:100058000D00D232E332693B65322038E131EB32B0
:10006800741025328A0600295810C3376E33E933D5
:100078007539613AE9376E10E634EE347334653217
:100088002E172E050D00542CA0216F37E634E73AC1
:10009800F230F4346F3720336937E939E8326417BE
:1000A8002E178A060000FF037F0A0319FF037F0843
:1000B8007F04031D57280800230824040319772800
:1000C800A5010430250203187228A601453026022E
:1000D80003187028A60A6A28A50A6528A303230A14
:1000E8000319A403602808007F087F0403199128D6
:1000F800FF01FF0103307F02031C8828031D8C28A1
:1001080007307F0203188C28FF0A0319FF0A7E288C
:10011800FF037F0A0319FF03782808000C309900B1
:100128001811181283129817231C9E2883160C1670
:100138000B178B17831698160800181118128312BC
:1001480098171816231CAC2883168C160B178B17B8
:1001580083120800C4000C1EAF2844089900080048
:10016800831203138C1EB6281A080800C4008A01DB
:10017800440882073034313432343334343435343B
:1001880036343734383439344134423443344434DF
:1001980045344634BB01BC01B70137083407042095
:1001A800B800B80803198629253A031D8229B70A19
:1001B800370834070420B800B808031986295C3AC0
:1001C800031DED28B70A370834070420B800AE200D
:1001D80084293808623A031D0929B901083039020F
:1001E80003188429B51FFA283130AE20B51BFE2824
:1001F8003030AE203908033A031D04292030AE20E0
:100208000310B50DB60DB90AF2283808643A031D73
:1002180056290430B900B61B482935083604031995
:1002280048293508C5003608C600BA011030C40090
:10023800C50DC60DBA0D031825290A303A02031C4C
:1002480027290A30BA02C40B1C293F303907840019
:1002580083133A0880003508C5003608C600C70170
:100268001030C400C50DC60DC70D03183F290A304C
:100278004702031C42290A30C7020314B50DB60D04
:10028800C40B3629B9030F29B90A053039020318F6
:1002980084293F303907840083130008BA20AE2030
:1002A800B90A49293808683A031D74293030AE2044
:1002B8007830AE20B61B6B29B60803196B29360EA9
:1002C8000F39BA20AE200F303605BA20AE20350ED1
:1002D8000F39BA20AE200F303505BA20AE20842958
:1002E8003808663A031D7B292130AE208429380856
:1002F800753A031D84293508AE2084293808AE20B4
:10030800B70AD128080083120313E701E601831610
:10031800B421E70A6708C9000130A0001D30200297
:1003280003189F29E60A49302007840083136608CA
:100338008000A00A922907220C108E018F01101448
:100348000518A8290C1CA42910100F08A2000E08D3
:10035800A1000518D7210A30A300A40160208D2927
:1003680070308F000F1DB6299B0107309C00831247
:1003780085010130831685008312860104308316B7
:10038800860083122310831692208312231083166B
:10039800A120B401B501B601CE206430A300A401A8
:1003A80060207C22372A0511A3011D30230203187F
:1003B800E42949302307840083138001A30AD9293B
:1003C800A3011D3023020318FF29A40108302402C9
:1003D8000318F7290310A50D2510851825140516EF
:1003E8000512A40AEA294930230784008313250843
:1003F8008000A30AE5291430B4004908B500B60105
:10040800CE200515080006141130A600A3010830F7
:1004180023020318192AA61F0612A61B06168615FC
:1004280086110310A60DA30A0B2AA3011D3023026F
:100438000318352A49302307840083130008A500D0
:10044800A401083024020318332AA51F0612A51B8D
:100458000616861586110310A50DA40A252AA30AD7
:100468001A2A0610080085010130831685008312B8
:1004780005118515E830A600A701A801A901AA0160
:10048800C830AB00AC01AD01AE01AF011130B00016
:100498002330B1004D30B2000D30B300A3010E304F
:1004A800230203186E2A26302307840083130008CA
:1004B800A500A4010830240203186C2AA51F851082
:1004C800A51B8514051605120310A50DA40A5E2A9E
:1004D800A30A532A05118511850103308316850067
:1004E8008312051585112930B400B501B601CE284F
:1004F80006108614E830A600A701A801A901AA01E0
:10050800C830AB00AC01AD01AE01AF011130B00095
:100518002330B1004D30B2000C30B300A3010E30CF
:1005280023020318AE2A2630230784008313000809
:10053800A500A401083024020318AC2AA51F06123E
:10054800A51B0616861586110310A50DA40A9E2A5A
:10055800A30A932A061086104830B400B501B601E4
:02056800CE289B
:00000001FF
